:020000040000FA
:040000000000D42EFA
:040004000034003490
:08000800FF00030E8312EB0060
:100010000408EC000A08ED008A018C19C22B8B1829
:10002000122B0B1814281828861AD42E061AE42D21
:1000300083126D088A006C0884006B0E8300FF0E2B
:100040007F0E0900FA00000000000000FA0B2328D0
:1000500000000800FF30FA007508FB00FA0B2E289C
:100060004F30FA00FB0B2E28000008004E30FB003A
:10007000FA0000006E1B16230000FA0B3928FB0B58
:100080003928000008000F30FC005A30FB00FA004D
:1000900000006E1B16230000FA0B4828FB0B4828B3
:1000A0006400FC0B482800000800A001A101AC017D
:1000B000AD01B601B701C201C301C401C501C6014A
:1000C000C701C801C901CA01CB01CC01CD0183160A
:1000D000A001A10183129F019F17831681309F0009
:1000E0008312080080309F009D1D7A28871C762887
:1000F000871878281F140C3022201F151F197E28FE
:100100002408A6002208A4002008A2001E08A000BF
:100110002508A7002308A5002108A30083161E08B0
:100120008312A1001F10080088309F009D1D9C288D
:10013000871C982887189A281F140C3022201F1516
:100140001F19A0283008B2002E08B0002C08AE00FD
:100150001E08AC003108B3002F08B1002D08AF0015
:1001600083161E088312AD001F10080090309F00F8
:100170009D1DBE28871CBA288718BC281F140C3068
:1001800022201F151F19C2283A08BC003808BA00DF
:100190003608B8001E08B6003B08BD003908BB0091
:1001A0003708B90083161E088312B7001F10080015
:1001B000A0309F009D1DE028871CDC288718DE28C2
:1001C0001F140C3022201F151F19E4281E08C2001E
:1001D00083161E088312C3001F100800B0309F0052
:1001E0009D1DF628871CF2288718F4281F140C3050
:1001F00022201F151F19FA281E08C60083161E0884
:100200008312C7001F1008004808CB004908CC0023
:100210004A08CD002908F1002808F2003F08F30041
:100220003E08F400C801C901CA010310F30DF40D22
:100230000310F30DF40DC9140310F20CF10C031CA0
:1002400027297308C9070318C80F7408C8070310C3
:10025000C80CC90CCA0C031C1C290800722072208F
:10026000722072202808AA002908AB00A8012108E2
:1002700023070318A80A25070318A80A2707031845
:10028000A80AA9002008220724072607A8070310A8
:10029000A80CA90C0310A80CA90C2808013C031CED
:1002A00062292808013C031C0315031D5B2929084A
:1002B000DA3C031C622983160430A3000030A4003A
:1002C0008312080083160230A3000030A4008312BA
:1002D00008009420942094209420B4012D082F0726
:1002E0000318B40A31070318B40A33070318B40A11
:1002F000B5002C082E0730073207B4070310B40CE2
:10030000B50C0310B40CB50C0800B620B620B6200E
:10031000B6203E08C0003F08C100BE0137083907BB
:100320000318BE0A3B070318BE0A3D070318BE0A9E
:10033000BF00360838073A073C07BE070310BE0C5B
:10034000BF0C0310BE0CBF0C08008C1018286400F2
:100350001623080043220330EA000230E8000F3081
:1003600072220430E8002A3057228E30E80029300B
:1003700057220530E800283057220030E8002B30A3
:1003800057220330E800303057220230E800403076
:1003900057220130E800503057220030E8000D307D
:1003A00057225008E800313057225108E800323017
:1003B00057220030E800413057220030E800423038
:1003C00057220030E800513057220030E800523008
:1003D00057220830E800353057220630E800453013
:1003E00057220030E800603057220030E8007030BB
:1003F00057220030E8000C305722FF30E800203050
:100400005722E030E800213057225208E80004303B
:1004100057225308E800053057225208E800003000
:1004200057225308E80001305722FF30E8002430FB
:100430005722E030E800253057220030E80008302D
:1004400057220030E800093057220030E800103011
:1004500057220030E800113057220030E8001430F5
:1004600057220030E800153057220030E8001830DD
:1004700057220030E800193057220130E8002B30B5
:1004800057227F220800BD23C030BA239F23AB230D
:10049000253022200800E900BD230330BA23690873
:1004A000BA230130B0239F23AB2358080800E9008A
:1004B000BD230230BA236908BA236808BA239F23F0
:1004C000AB230800E800BD2380306804BA239F23D3
:1004D000AB230800BD23A030BA230130B0239F23F3
:1004E000AB230800E900BD230530BA236908BA230D
:1004F0006A08BA236808BA239F23AB230800E030B8
:10050000EA000030E8000F3072220030EF00EF0AFE
:100510000E304B22E0390319912A6F08FF3C031D6E
:10052000872A0000080083168C018D30810020305E
:1005300084008001840A841F992AA03084008001ED
:10054000840A841B9F2AEE018312850186010330F1
:10055000870083162F3085003D308600903087005D
:100560000F308800073089008312C8308B000800E4
:100570008816D101EE30D0008819D00AE230D200BE
:100580008819D20A080807390310D100D10DD10DFE
:10059000D10DD10DD10D5108D30094233620362032
:1005A000AA210108BF39810008000730E800353072
:1005B00057226E080F39F1000310F10DF10DF10D06
:1005C000F10D28080339A80071082807F100710807
:1005D000E800363057222908E800373057223E0815
:1005E000E800383057223F08E800393057223408F5
:1005F000E8003A3057223508E8003B305722D8202F
:100600009A24C3004308E8003C30572208006400E5
:100610000830EA0030304B226A05031D072B0130F9
:10062000622208006E178B100B121828EE1E0800AD
:10063000061D080008080F39031908002C304B224A
:10064000F600761C0800852169212E21D820D522AC
:1006500007230030E8002C3057222C304B220000BA
:100660008B100B166E1308008316CF309200831286
:1006700006309500971617127430CE009B00871431
:100680000715F430920083168C1083124F23080054
:100690000000971517159D151D150710080000007F
:1006A0000000971117119D111D11071187100714D4
:1006B00008004E089B00CF0C4F0CCF0D30391D1297
:1006C0009D129D0408008316240883124F07C03929
:1006D000CF000318CE0A831623088312CE075923AE
:1006E00008008316240883124F02C039CF00031C70
:1006F000CE03831623088312CE024E080E3C031C41
:10070000922B4E080E3C031C0315031D8D2B4F0826
:10071000E73C031C922B0319922B0E30CE00E730DE
:10072000C039CF0059230800941212309400941657
:100730008C119413141383168C158312080004086B
:10074000D4005630D402031908005630D500881260
:100750005608930008006400D408031DAB2B080062
:10076000FF390319080064008001840AFF3E031D5D
:10077000B02B08008000840A0800D4015630D50050
:10078000840008008C1155088400D50A13088000E5
:10079000D40BCC2B88161828840A0008930018283C
:1007A00043204823EE1110308806640036202E21A5
:1007B0002808003C031C0315031DE72B2808003CF8
:1007C000031CE82B2908EF3C0318E72BE82BFF2537
:1007D0008521192620242A2469213408013C031C80
:1007E0000315031DFC2B3408013C031C3B2E35086C
:1007F000803C0318FC2B3B2EAA261623FF2B8316C6
:10080000211C052C201C1D2C1A2C201C1A2C1D2CE4
:100810008316201C132CA01C0E2C1A2CA11C1A2C85
:10082000211C1D2C1A2CA01C1D2CA11C1D2C211CB4
:100830001A2C1D2C83127123D22B83126323D22BEB
:1008400028082A02031D262C29082B028316A00D36
:100850008312080048084B02031D342C49084C023F
:10086000031D342C4A084D028316A10D0130A10549
:10087000831208004608033C0319812C4608033CF8
:10088000031C0B2D03190B2D4608023C031C0D2DD8
:1008900003190D2D4708A43C031C0F2D03190F2D20
:1008A0004708463C031C112D0319112D47083C3CF9
:1008B000031C132D0319132D4708263C031C152D6B
:1008C0000319152D47081B3C031C172D0319172D61
:1008D0004708163C031C192D0319192D4708133C12
:1008E000031C1B2D03191B2D4708123C031C1D2D37
:1008F00003191D2D4708113C031C1F2D03191F2D23
:10090000012D4708F93C031C012D0319012D47084F
:10091000F83C031C052D0319052D4708F23C031C68
:10092000072D0319072D4708DB3C031C092D03196C
:10093000092D0B2D4308A63C031C012D0319012D85
:100940004308A33C031C052D0319052D43089F3CB8
:10095000031C072D0319072D43089B3C031C092D7D
:100960000319092D4308973C031C0B2D03190B2D6C
:100970004308933C031C0D2D03190D2D4308903C97
:10098000031C0F2D03190F2D43088C3C031C112D44
:100990000319112D4308883C031C132D0319132D33
:1009A0004308853C031C152D0319152D4308803C75
:1009B000031C172D0319172D43087C3C031C192D0C
:1009C0000319192D4308793C031C1B2D03191B2DFA
:1009D0004308753C031C1D2D03191D2D4308703C55
:1009E000031C1F2D03191F2D43086D3C031C212DD3
:1009F0000319212D4308693C031C232D0319232DC2
:100A0000012DFF3008005F3008005A3008005530D3
:100A10000800503008004B300800463008004130D4
:100A200008003C30080037300800323008002D3014
:100A3000080028300800233008001E300800193054
:100A40000800143008000F30080064000816EE1487
:100A50000130F5007430CE009B002E212808003CA8
:100A6000031C0315031D3D2D2808003C031C3E2DCF
:100A70002908EF3C03183D2D3E2DFF256400692118
:100A80000130F1000330F2000310F10CF20C0310FE
:100A9000710CF300720CF2070318F30A7308F107E4
:100AA00034087102031C0315031D5F2D3408710205
:100AB000031C652D3508720203185F2D652D482330
:100AC000FF3022204F2336202D2D6400A7216921DD
:100AD0000130340203196F2D031C252D732D0330B3
:100AE0003502031C252D0130F2003408720203196F
:100AF0007C2D031C252D822D8030F20035087202DA
:100B0000031C252D64002E212808003C031C03151E
:100B1000031D932D2808003C031C942D2908EF3C4D
:100B20000318932D942DFF252E21A80CA90CA80C99
:100B3000A90C53302902031CA72D74302902031C71
:100B4000A42D25309B00A92D5B309B00A92D893059
:100B50009B00640048232A204F2336206400340879
:100B6000F1003508F2006921FF30B506B406013006
:100B7000B5070318B40A3508F2070318D12D340855
:100B8000F107031CD32D0330F30072087302031C1A
:100B9000CE2D0530F507031C652DDB2D0130F5004A
:100BA000652DF10ABF2DFF30F206F1060130F20784
:100BB0000318F10AC32D64000812EE10A721743047
:100BC000CE009B00432008004F23EE143620A721BF
:100BD00069213408013C031C0315031DF82D34085A
:100BE000013C031CE62D3508803C0318F82DE62D4A
:100BF00008133620081748230B10EE101828A721D9
:100C00002E212808003C031C0315031D102E280864
:100C1000003C031C172E2908EF3C0318102E172E3A
:100C20006E1408163620081243207123FF2D6E1013
:100C300008000421C808031D342E4908163C031C73
:100C40000315031D2C2E4908163C031C342E4A089C
:100C5000263C03182C2E342E8316A20A3030220292
:100C60008312031C392ED42E8316A208031DA2035F
:100C70008312000008004F233620A7216400692159
:100C80001030F6000130F7008030F6070318F70A3D
:100C90007708F200340872020319512E031C572EF4
:100CA000802E7608F200350872020318802E08168E
:100CB000EE14EE114F233620A7212E212808003CE8
:100CC000031C0315031D6D2E2808003C031C6E2E0B
:100CD0002908EF3C03186D2E6E2EFF25692134087C
:100CE000013C031C0315031D7E2E3408013C031C2C
:100CF0005B2E3508803C03187E2E5B2EEE1008120A
:100D0000EE150816712348233620A7212E21280826
:100D1000003C031C0315031D962E2808003C031CF1
:100D2000982E2908EF3C0318962E982EFF25A72110
:100D30006921A7213408013C031C0315031DD22B94
:100D40003408013C031CA92E3508803C0318D22B23
:100D50003D2E3D2E86196E156E1DD32E4F2308167F
:100D6000A72136202E212808003C031C0315031D53
:100D7000C22E2808003C031CC32E2908EF3C031890
:100D8000C22EC32EFF25EE20003046020319C92EC5
:100D9000AA2EE83047020318AA2E6E1188133620B7
:100DA000881708124823080093225520061DE62EB6
:100DB00008080F390319E62EB8220430FD008B1005
:100DC0000B16EE16EE146E146E15EE11A7213620DA
:100DD000640094202C08013C0319F12E0318F52E11
:100DE000E62E80302D020318E62E08133620081751
:100DF0008813362088173423FF2525258316A20162
:040E00008312D02B5E
:02400E00363F3B
:00000001FF
